:020000040800F2
:10000000B86C002045010008593C0008173600086C
:1000100000000000000000000000000000000000E0
:10002000000000000000000000000000933E0008F7
:1000300000000000000000000301000871400008FB
:100040005701000800000000570100085701000890
:10005000570100085701000857010008351400082F
:1000600000000000D91300085701000857010008DC
:100070005701000857010008570100080000000060
:1000800071410008814100085701000861410008E2
:1000900057010008570100085701000857010008E0
:1000A0005701000857010008570100084D46000895
:1000B0005D460008570100080348854600F05EFED3
:1000C0000048004741650008B86C0020084B1968DB
:1000D0000868203080F30988022080F31488BFF379
:1000E0006F8F3FBCAE4608BC04BC62B61847000028
:1000F00030000020EFF3108072B6704780F3108854
:100100007047EFF309800E4B1A6820381060F0C07A
:1001100044464D4656465F46F0C008B572B609F0F3
:1001200025FD62B60CBC116808681030F0C8A04606
:10013000A946B246BB4680F309882038F0C8184764
:10014000300000200448804704480047FEE7FEE7EF
:10015000FEE7FEE7FEE7FEE705410008B9000008FC
:1001600030B50B46014600202022012409E00D464F
:10017000D5409D4205D31D469540491B25469540D7
:1001800040191546521E002DF1DC30BD70B500241B
:100190002546002801DA01244042002901DA012520
:1001A0004942FFF7DDFFAC4200D04042002C00D0B6
:1001B000494270BD10B5202A04DB0846203AD040E1
:1001C000002110BD0B46D340D0402024A21A9140FC
:1001D0000843194610BD01464139192900D820307D
:1001E0007047000038B50446C0681821401E4843D7
:1001F000A16840183C214843616840183C214843AD
:100200002168451860690C2148432169401869211B
:10021000C900401A3021FFF7B9FF114A5043421973
:10022000084600921A2902DB0E49511800910C2150
:10023000FFF7ACFF0C4A5043009A801800900B481F
:1002400006E0491E425C074B5A43009BD2180092BD
:100250000029F6DC2146684600F0DCFB009838BD3A
:10026000801F8607805101008033E101A8A70008A4
:1002700003460B439B0703D009E008C9121F08C0BF
:10028000042AFAD203E00B780370401C491C521E6A
:10029000F9D27047D2B201E00270401C491EFBD275
:1002A00070470022F6E710B513460A460446194681
:1002B000FFF7F0FF204610BD421E5378521C002B62
:1002C000FBD10B781370491C521C002BF9D17047DD
:1002D00030B505462A460B4610781C78521C5B1C2C
:1002E000002801D0A042F7D0002C03D0002802D073
:1002F0006D1CEFE7284630BD10B5044605E00B78CD
:100300000370401C002B00D0491C521EF7D220461F
:1003100010BD421C0178401C0029FBD1801A704797
:1003200010B5002200E0521C835C8C5CA34201D11A
:10033000002BF8D1D8B2E1B2401A10BD03460A78BA
:100340000270401C491C002AF9D11846704703214D
:10035000001D401E037812021A43491EF9D51046AB
:100360007047034603220870000A491C521EFAD542
:1003700018467047F7B5009C0F4600262578641C88
:10038000002D05D000F038FB0068405DC007F5D1B6
:100390002B2D02D02D2D18D0641E39462046029AEE
:1003A00000F072FB002F04D03968A14201D10099FE
:1003B00039607105022400290BDA4042002803DD70
:1003C00004F09EF90460A007FEBD012080020643F0
:1003D000E3E70028F8DA04F093F904600048FEBD72
:1003E000FFFFFF7F70B5064604F08AF904680546F2
:1003F0000A2200213046FFF7BDFF2C6070BD024687
:1004000070B54A40D30FDB0740002DD04A002AD0F8
:10041000010E140E000212020919400A520A841831
:10042000E50104465443000A120A2E045043A4195D
:100430004219200CC543AA18120C0125AD03521C09
:10044000521912047F39240400D0521C104301D4E5
:100450004000491EC2B20C06C0092018401C4008CA
:10046000802A02D003E0002070BD4008400000292F
:1004700000DA0020184370BDF0B507460846584022
:1004800087B0C00F049048000E4659004008490844
:10049000BC1A884105D2384631461E4617460B46DF
:1004A00002465800400810434CD0300D03904005E0
:1004B0005900400D490D0590401A0290402872DA0B
:1004C00018030121000B09050843019004980092CC
:1004D000002805D0019952420020884100920190E5
:1004E000029840210A1A0199009800F061FA054625
:1004F0000C466B4607CB00F06BFAC0197141039AAA
:100500000E0D0023D71756401A467A40164344D0A2
:10051000049A002A2DD0029A012A039A15DC1205AA
:10052000C01A914101263605001C7141D20F059E6B
:10053000D2070093019202962A46234600F098FBC8
:1005400007B0F0BD38463146FAE71605224A0F4695
:10055000B218C01AB74101210905001C4F4100180B
:100560007F41114618187941E20F10436D1964411B
:1005700013E0E2076D0815436408C2071443039AA9
:1005800001261205C01A91413605001C7141CE07A3
:10059000400830434908C01851412A46234600F01C
:1005A0005AFBCDE7FFE7049801224000C117121A59
:1005B00000238B4104983146C417381AA141EEE755
:1005C00030B40124E407634030BC55E730B4012463
:1005D000E407614030BC4FE70000E0FFF0B51FB416
:1005E00088B00B990998002448400999C00F490028
:1005F00049080991C0070B990090490049080B91DF
:1006000009990898A64608431CD00B990A980843F4
:1006100018D0099801244000420D4800410D099866
:1006200024050003000B204309900B980003000BE6
:1006300020430B9050181C4940180022019014468A
:10064000104605E0002001460DB0F0BD032801DA98
:10065000034600E003239C46C11A0AAE0AE05F008D
:1006600008ADED5B4F00F75B7D430027AA187C4186
:10067000491C5B1E6145F2DD410004AB5A52210466
:10068000120C0A43240C401C0828DFDB019802905E
:100690000099704601910090059B049A079906986D
:1006A00000F0E6FAD0E700000DFCFFFFF0B50C46C5
:1006B0005C4085B0E40FE40703944C000026640816
:1006C00059009446490802460296224321D06246C8
:1006D0000A431ED06200570D4A000E032303550D36
:1006E000012402462C492405781B1B0B360B4018AD
:1006F00023432643614600901C46501AB44103D35D
:100700000098401C009002E0921800985B4100287D
:1007100003DA0020014605B0F0BD002001210905E3
:100720000746864611E064461D46141BB54106D3B4
:100730006546521BB341744607430C43A646CD079A
:1007400040084908284392185B4105460D43EAD109
:100750001046184313D06046194650407140084374
:1007600006D06046101AB34106D20122002306E0EB
:1007700000220123DB0702E00122D243531000983C
:1007800074460105381C6141029C039D00196941B2
:1007900000F061FABFE70000FD03000070B54B00F8
:1007A0005B0803430BD04B005C0D002633466542CB
:1007B000B341D417AD1AA34102DB0020014670BD3E
:1007C00012053018514170BD10B500229623114614
:1007D00000F008FA10BD00000EB5C217C10F50405E
:1007E000CA0740180021054B0293019200910A4666
:1007F0000B4600F03DFA03B000BD000033040000DA
:100800000EB505490291002100910A460B4601915F
:1008100000F02EFA03B000BD330400004100400296
:100820000122400AD205090E80187F2901DA002032
:100830007047962903DC9622511AC84070479639B2
:100840008840704770B5CD0F4A0009030123090B9A
:100850001B0519430B4BED070024520D9A4201DA98
:10086000002070BD074B34339A4203DC9A1AFFF71D
:10087000A1FC02E00449511888402C43F1D04042C9
:1008800070BD0000FF030000CDFBFFFF4A0009031D
:100890000123090B1B051943094B10B5520D9A4250
:1008A00001DA002010BD064B34339A4203DC9A1A59
:1008B000FFF780FC10BD03495118884010BD0000AF
:1008C000FF030000CDFBFFFFC20FD207400040082E
:1008D0000BD0C10D0723DB01C91840020905400AEE
:1008E0001143C2084007114370470020014670477A
:1008F00010B5002904DB0124E40740428C41214665
:10090000002B04DB1C460123DB075242A3418B4230
:1009100000D1824210BD0000CB0FDB07490010B5AB
:10092000490802460A4307D00A0D07240903E401D7
:10093000090B121B002A01DC002010BDC900440F66
:100940000C43C100E018D205801800F043F910BD37
:10095000F0B51FB40646002082B005464024019140
:1009600000901BE0019922460F463046FFF722FC1B
:10097000049A059B801A994110D3104619462246C5
:1009800000F016F8361A8F41019722460120002107
:10099000009F00F00DF838184D4100902046641E6D
:1009A0000028DFDC019B00982946324607B0F0BDE5
:1009B00010B5202A04DB0146203A9140002010BDEA
:1009C000914020239C1A0346E3401943904010BDF8
:1009D00010B5202A06DBCB170846203A1041C11774
:1009E0000B4306E00B461341D0402024A21A91404D
:1009F0000843194610BD00000048704738A8000899
:100A000010B50446FFF7F8FF0068005DC007C00F8F
:100A100010BD000070B50C4600683C21FFF7A0FB3C
:100A200021603C21FFF79CFB61601821FFF798FBD8
:100A30000546A1600721001DFFF792FBA1610F4849
:100A4000A90008180E49FFF78BFB024644328808BC
:100A50006261E0613B2802D3910700D0401C002175
:100A6000084B0A462161995C814203D8401A521C06
:100A70002261F8E7401CE060204670BD6C0B00006E
:100A8000B50500003CA80008F7B582B0029C00271D
:100A90002078641C15460197302802D0002D15D00F
:100AA00015E020780127641C782804D0582802D04B
:100AB000002D09D00BE0002D01D0102D07D100270B
:100AC00010252078641C02E0082500E00A25002695
:100AD000009610E00099012769430818020C294686
:100AE00080B2714300908E183804864201D30120F1
:100AF00001902078641C294600F052F90028E9DAB8
:100B00000398002805D0002F01D0641E00E0029C4D
:100B100004600198002806D003F0F2FD0221016074
:100B2000C81E05B0F0BD009930040843F9E7000085
:100B30000FB400B589B00CA900910B990023CB60CC
:100B4000204B214A06930792042201921F4A0292E7
:100B50001F4A089202466B46002000F0C0F909B017
:100B600008BC04B0184770B586B006460020C043E4
:100B70000190002015460C460091029104903246E7
:100B8000694604A8FFF7D4FF024604982118002DF7
:100B900005D0002801D0084600E0204628600498CF
:100BA00000280DD0002A02DD0098884208D0081BDA
:100BB0000190009432466946029404A8FFF7B8FFFA
:100BC00006B070BD3511000855110008FFFFFF7F0A
:100BD000010A0008002904DA401C490001D140083C
:100BE0004000704770B40024050C05D110240004A7
:100BF00002D1002921D01124050E01D100020834B0
:100C0000050F01D10001241D850F01D18000A41C16
:100C1000002801DB4000641C002908D020252E1B81
:100C20000D46F540A14000D00121294308430106AB
:100C30001B1B000ADB1D02D5002070BC7047DB05C2
:100C4000181880180029F8DA401C4900F5D170BC4A
:100C500040084000704710B5002B08DA0024401C03
:100C6000614192185B411A4301D14008400010BD18
:100C7000F0B51FB482B005460C0003D0084603F05F
:100C80001BFD02E003F018FD2030024600902146D3
:100C90002846FFF78DFE049B059A04460F4618432D
:100CA0001143084314D0184610431BD0009840212C
:100CB0000A1A18460599FFF77DFA05460E46009A6E
:100CC00005990498FFF774FE084305D0012004E05D
:100CD0002046394607B0F0BD0020C11705430E433A
:100CE0002C43374300990E986305401A7905E40AAE
:100CF00000220C43FD0A0A3002D500200146E9E734
:100D00000105101969410C9C0D9D00196941FFF7FF
:100D1000A2FFDFE74A0009030123090B1B05194362
:100D20000A4B10B5520D9A4202DA0020014610BD5E
:100D3000064B34339A4203DC9A1AFFF73BFA10BD94
:100D4000034BD218FFF734FE10BD0000FF03000074
:100D5000CDFBFFFF10B5002904DB0124E40740426E
:100D60008C412146002B04DB1C460123DB07524249
:100D7000A341994200D1904210BD0000064C0125CC
:100D8000064E05E0E36807CC2B430C3C9847103433
:100D9000B442F7D3FFF794F93CA900085CA9000816
:100DA0003A2800D23038202302469A43412A01D300
:100DB00010463738884201D30020C04370470000F6
:100DC000FFB5087889B01546FF2805D0491C2D28A5
:100DD00004D00022002407E000240BE00122F9E700
:100DE0000A235C430419491C0878FF28F8D1002A1B
:100DF00000D06442002004902A7801462D2A01D0B8
:100E00002B2A0FD16D1C2D2A02D00022049209E05A
:100E10000122FBE700260A2233466D1C00F0ACF9E4
:100E2000381871412F78FF2FF4D10C9AA21806922E
:100E300002460A4304D0FF23069A9133DA4205DAC8
:100E4000002109980A4606C00DB0F0BD0024B74A3B
:100E5000B54D2646079200F0CDF902900698039111
:100E6000002801DA474200E0074639050020AF4A72
:100E7000001C51410191009012E0F80707D0224672
:100E80002B4630460799FFF7A9FB064607912246F5
:100E90002B4610461946FFF7A1FB04460D467F106E
:100EA000002FEAD10698019B0028009A0399029826
:100EB00006DAFFF7FBFB3246079BFFF7F7FB05E07F
:100EC000FFF78CFB3246079BFFF788FB049A002A4A
:100ED00002D00122D2075140099A03C2B4E7FFB5FC
:100EE00091B0002009900025ED432E209E685C689B
:100EF0001F460190B9696D1C129888470090396AA5
:100F000088470028F6D10098401C0AD00D20C00167
:100F10008443002E12DD00982B2809D02D280DD1F6
:100F200003E00020C04315B0F0BD0120800204435F
:100F3000B9696D1C12988847761E009003A9600558
:100F400001D52D2000E02B206A461073491C0CA807
:100F50000F9102900AE0B9696D1C129888470090C1
:100F60000120400204431398761E0560002E02DD26
:100F700000983028EFD001990098884246D180200F
:100F8000044308E00998401E0990012040020443F0
:100F90001399681C0860B9696D1C761E1298884701
:100FA00000903028EED031E00199884205D120062A
:100FB00003D480200443761E1EE0009803F07AFCE0
:100FC000002826D001204002044307A90F980331CE
:100FD000761E88420BD200980F99303808700F980F
:100FE000401C0F90200607D50998401E03E02006FC
:100FF00002D40998401C0990A00502D51399681CD9
:101000000860B9696D1C129888470090002ECBDCEF
:1010100059E0002E57DD0098652801D0452852D1AF
:10102000A00550D5032000028443B9696D1C761ECB
:10103000129888470090002E0CDD2B2804D02D2814
:1010400008D1FF2001300443B9696D1C129888470C
:10105000761E0090E00501D52D2100E02B2102989D
:1010600001700298401C0290019025E0012040028E
:1010700004430EA902980131761E88420ED20098D0
:10108000029930380006000E087003D102990198C9
:1010900081420AD90298401C029006E0E00501D581
:1010A000234801E0224840420990B9696D1C12981A
:1010B0008847009013980560002E04DD009803F027
:1010C000F9FB0028D2D1F969129888470F99FF20BF
:1010D0000870029903AA087000200A900B900CA9CE
:1010E0000AA8099BFFF76CFEA00502D40120C043AB
:1010F00019E72420044209D0E00713D138680B9A7D
:101100000A99031D3B60006806C00BE00B990A9822
:10111000FFF702FC0146E00704D13868021D3A607F
:10112000006801602846FEE6000014400000F03F21
:10113000F1D8FFFF4268002A08D001680B78491CEB
:10114000002B03D0521E06C0184670470121C16013
:10115000881E70474268002A0BD0C3680168002BC4
:1011600007D183688B4204D0491E521C06C0002060
:1011700070470020C0437047F0B51FB486B0002010
:101180000090019002900698069980B2049007980A
:10119000090C02040014114307900027089D0998C8
:1011A00006913E463C4603900398A9B20204000C07
:1011B000039004982D0C1543484300212246FFF765
:1011C000F7FBC719714110340E46402CECDB384652
:1011D000029AFFF7EDFB009A019B8018009059419D
:1011E00002980191103002904028CCDB00980BB09F
:1011F000F0BD00000EB5054A02920022009213468F
:101200000192FFF735FD03B000BD0000330400007C
:1012100070B58C180578401C6B075B0F01D1037803
:10122000401C2A1106D10278401C03E006780E709B
:10123000401C491C5B1EF9D12B0705D40023521E0C
:101240000DD40B70491CFAE70378401CCB1A921C92
:1012500003E01D780D70491C5B1C521EF9D5A1429C
:10126000D8D3002070BD10B50146406A426C5023AF
:101270001A420AD1416C01225202114341640168B1
:10128000CA681205920F05D020E0C06B026B0846B9
:10129000904710BD026A002A18D10A68120715D5B6
:1012A0008A6801235207002A09DB4A680C24A243FA
:1012B0004A60416C1A0291431943416406E0416C53
:1012C000202211434164816C1943816400F00AFAC1
:1012D00010BD10B5406A416C402211434164816CDD
:1012E00004221143816400F0FFF910BD10B5406A7B
:1012F00000F0F9F910BD0000F8B504460020009098
:10130000206881688907890F012905D10168C9070B
:101310002CD1C168090429D48168154A10261140CE
:101320000125002915D1816829438160124811499E
:101330000068FEF715FF00E0401E00900028FBD17A
:1013400000F000FD07460CE000F0FCFCC01B02288A
:1013500007D9606C30436064A06C2843A06401200E
:10136000F8BD20680068C043C007EDD10020F8BD7B
:101370001700008040420F000418002010B5212003
:1013800000F064F8542148430C490D4B40181A46AC
:101390001C460B3A0BA1401C03F07AF908480B38A5
:1013A000FEF7B7FF002808D02046FEF7B2FF00285E
:1013B00003D00A21212002F0C1FD10BD0001002050
:1013C0002066002041542B51475245464C4F433D27
:1013D00025732C257300000010B5024800F008FBAF
:1013E00010BD0000801B002010B5044600680549B0
:1013F00040181421FEF7B4FE800020640248E06328
:1014000010BD0000F8FFFDBF0000024030B5056CC4
:101410000124AC40C56B6C60046863604368102BAA
:10142000036803D099600068C26030BD9A600068AC
:10143000C16030BD10B5202000F0C8FB402000F096
:10144000C5FBFF20013000F0C1FB10BD03460020AA
:10145000074A03E0382907D0401C40B254214143D9
:10146000515C9942F6D170470020C043704700009C
:101470000001002070B506460D4600240846FEF720
:1014800048FF0146002008E02A5C2C2A00D1641C99
:10149000B44201D1401C70BD401C8842F4DB0020E6
:1014A00070BD00001CB5044600200090019008A10A
:1014B0002046FEF70DFF002804D0021B2146684697
:1014C000FEF7D6FE6846FEF78DFFC0B21CBD0000D9
:1014D0002A00000000B591B000226946104801F0D2
:1014E00067FA002205A90E4801F040FA6846C07D5F
:1014F00064300B906846407D401E0A906846807DAF
:101500000990684600780838089068464078079047
:1015100068468078069006A8FEF764FE11B000BD0C
:10152000C0180020F8B50546044640352878002646
:10153000012808D001202870206881688907890F58
:10154000012908D101E00220F8BD0168C90738D19E
:10155000C168090435D4616CFF2201329143022233
:1015600011436164C1688907890F0091C1688908C6
:101570008900C1602068816892071143816000F092
:10158000E1FB07460EE000F0DDFBC01B022809D995
:10159000606C022188431021084360640020287099
:1015A0000120F8BD206880680028ECDB2068C16855
:1015B000009A1143C160606C80088000401C606428
:1015C00004E0606C2021084360640126002028703C
:1015D0003046F8BDF8B50025044640340095227821
:1015E000012A39D00123237002689668760767D4F0
:1015F000384F4E68BE424DD0966A0F78BB401E43AE
:1016000096620123826B1B079A421FD0012A1DD0CC
:10161000022A1BD0032A19D0042A17D0052A15D074
:10162000062A13D0072A11D002688B6856697607FC
:10163000760FB3420AD05369DB08DB0053610068C0
:1016400042690B7A5B075B0F1A43426108681028F6
:1016500004D0112802D038E00220F8BD1E4B9A6851
:10166000102807D00120800502439A6008681028DE
:1016700003D02AE00120C005F6E7194817490068A1
:10168000FEF76EFD0A21484300E0401E009000284E
:10169000FBD11AE0906A0E78B340984390620868D4
:1016A000102801D0112810D10B498A68102804D0C5
:1016B0000120800582438A6007E00120C005F9E728
:1016C000416C2022114341640125002020702846EE
:1016D000F8BD0000011000000027014040420F004B
:1016E000041800207047704770470000F8B50025C7
:1016F0000446002803D0606C002802D008E00120D6
:10170000F8BD0020A06440210855204600F0A8F84C
:10171000606C1022C006002870DB206881684907D1
:101720006CD4616C1301994302231943616481688D
:101730008907890F012905D10168C9070FD1C1683F
:1017400009040CD4C16818239943A3681943C160E4
:10175000206801696368890089081943016120686C
:10176000C1683D4B1940C160A0698103E069C003B5
:101770000143206A43031943636B012B02D0012309
:101780001B0300E000231943E36819432369022B7C
:1017900009D000231943236B666A5B0019430123B8
:1017A000012E02D00AE00423F4E7002827D0606C61
:1017B000202630436064A06C1843A064A06A0646EB
:1017C000FF3EC23E02D0E66A304301432068C6684D
:1017D0000E43C6600126A06B3607B04213D0012825
:1017E00011D002280FD003280DD004280BD00528D3
:1017F00009D0062807D0072805D010E028E00120EE
:1018000000040143DAE720684669F608F6004661FD
:1018100020684669278F7F077F0F3E434661206817
:10182000C0680E4E3040884207D10020A064606C32
:1018300080088000401C606408E0606C02218843DE
:1018400010436064A06C1843A06401252846F8BDCD
:10185000606C10436064F8E71902FEFFE7FF3F8306
:10186000F0B5054600681D4987B0884234D11C4850
:1018700081694715394381618069002638400590A8
:101880001020009003200190092069460296C006AE
:1018900000F0A8F91348144C41C4A76080202660CA
:1018A00060600001E0602020666120610E48083C15
:1018B00000F0ECF8002803D072210CA002F0D6FE54
:1018C00008487830816A090909018162816A012228
:1018D00011438162EC63656207B0F0BD00240140F2
:1018E0000010024008000240801B00202E2E2F53C3
:1018F00072632F73746D3332663078785F68616C11
:101900005F6D73702E630000F7B504460068002514
:10191000806840073DD426464036307801280AD0FA
:1019200001273770E069012807D02046FFF7E4FC63
:10193000050002D02EE00220FEBD606C1649084072
:10194000FF210131084360640020A0643070E16B26
:1019500012488862E16B1248C862E16B1148086363
:1019600021681C20086020684168102211434160F2
:101970002068C1683943C1602168E06B4031029B37
:10198000019A00F0AFF82068816804221143816059
:1019900000E002252846FEBDFEF1FFFF67120008A9
:1019A000ED120008D312000870B500240146203162
:1019B0004A78022A03D004218163012416E00268D8
:1019C00013680E25AB431360026813685B085B0065
:1019D00013600125036C2A469A40C36B5A604D7010
:1019E00000220A70416B002900D08847204670BD54
:1019F000F0B4C16B0C6801680B680422056C1646D4
:101A0000AE4026420DD05E070BD50B689B0602D474
:101A10000B6893430B60016C8A40C16B4A60C16ADA
:101A200019E00227AF400246274001262032002F4E
:101A300015D09F0713D50B689B0604D40B680A24A6
:101A4000A3430B605670036C02219940C36B59602D
:101A500000211170816A002916D0F0BC08470827C0
:101A6000AF40274210D01B070ED50B680E24A343AE
:101A70000B60036C31469940C36B596086635670A6
:101A800000211170016BE6E7F0BC704770B50400EF
:101A900023D0022025462035687020680168104A4E
:101AA000A3681140626826691A43E36833431A4306
:101AB00063691A43A3691A43E3691A430A4302603C
:101AC0002046FFF791FC0020A062E0622063606383
:101AD000A06301216970287070BD012070BD0000F5
:101AE0000FC0FFFFF8B504468C4620300178002572
:101AF000012909D00126067047780021012F05D061
:101B0000017002252846F8BD0220F8BD0227477063
:101B1000A1632068016849084900016061462046C8
:101B2000FFF774FCE06A00282068016802D00E22EA
:101B3000114306E00A221143016020680168042273
:101B4000914301602068016831430160DAE731B5F3
:101B500000F0F8F8009C0546601C00D0641C00F002
:101B6000F1F8401BA042FAD338BD000010B50021A7
:101B7000154A202810D040281AD0C31FF93B0AD19B
:101B80009068401C906093680124E4070020E31AE9
:101B9000884100DA916010BD5068401C5060536865
:101BA0000124E4070020E31A8841F4DA516010BDF3
:101BB0001068401C106013680124E4070020E31A39
:101BC0008841F4DA116010BDBC00002010B5044952
:101BD0004A69024202D04861FFF7C8FF10BD000009
:101BE00000040140F8B500228DE001249440A44691
:101BF00023407DD04C68022C01D0122C0CD1D4088B
:101C0000A4002618356A5407E40E0F27A740BD43E9
:101C10000F69A7402F433762066855000324AC4084
:101C20000F79A643BF07BF0FAF40374307604E6829
:101C3000012E05D0022E03D0112E01D0122E0ED16E
:101C40008668CF68A643AF403743876047686646DB
:101C5000B7430E79F606F60F96403E434660C668D7
:101C6000A6438C68AC403443C4604C68E40049D55A
:101C7000284CA56901263543A561A469950834401F
:101C80000094254CAD002F19BD689407240F0F2632
:101C9000A640B5430926F606B04201D100260FE062
:101CA0001E4EB04201D101260AE01D4EB04201D1C4
:101CB000022605E01B4EB04201D1032600E00526B6
:101CC000A6402E43BE60184D2C684E689C43F60318
:101CD00000D51C432C606C684E689C43B60300D54D
:101CE0001C436C60AC684E689C43F60202D500E071
:101CF00008E01C43AC60EC684E689C43B60200D51B
:101D00001C43EC60521C0B681C46D44000D06CE7AE
:101D1000F8BD00000010024000000140000400482F
:101D200000080048000C0048000401400069084019
:101D300000D001207047002A01D081617047816284
:101D40007047000001480068704700009C000020B8
:101D500070B5024640325378202B1CD11378012BEA
:101D600019D0012414702423537003681D68A543FF
:101D70001D6003681D682603B5431D6003681D6868
:101D80000D431D60006801682143016020205070F0
:101D90000020107070BD022070BD70B50246403248
:101DA0005378202B1BD11378012B18D001251570E7
:101DB0002423537003681C68AC431C6003681C68D0
:101DC0000F263602B44309022143196000680168F6
:101DD00029430160202050700020107070BD022047
:101DE00070BD000070B5040006D025464035687807
:101DF0000026002802D005E0012070BD2E7020468C
:101E000000F0A0F9242068702068016849084900A2
:101E100001600F2160680906884321680861206815
:101E200082680121C9038A438260E0680128A068B2
:101E300008D021229202104322689060E0680228B4
:101E400002D005E00843F7E701202268C002506095
:101E5000206842680F4B1A4342602068C2688A4378
:101E6000C260616920690843A169090208432168C9
:101E7000C860216AE0690843216808602068016839
:101E80000122114301606664202068702663AE70F1
:101E9000002070BD00800002FFB5054604464035B5
:101EA000687883B0202873D10C98002871D00D98E1
:101EB00000286ED0287801286AD001202870FFF70A
:101EC00041FF0646012200901923D103204601F06C
:101ED0006BFC002876D1222068704020A870002773
:101EE00067640C9860620D98608567630E98009037
:101EF000019604A90EC9204601F0DAFB002804D09F
:101F0000606C2F70042860D05CE0618D0920800235
:101F1000FF2905D9FF22228501231B06009006E038
:101F2000618D21850090208D0123C2B25B06204681
:101F3000049901F027FC00960022042120460E9B04
:101F400001F032FC00283DD12068416A606A421CE1
:101F500062620170208D401E80B22085618D491E15
:101F60006185002821D1608D00281ED000960022B6
:101F7000802120460E9B01F017FC002822D1608DA5
:101F8000FF2807D9FF22228501231B06009708E0BE
:101F90002AE01AE0608D20850097208D0123C2B2CF
:101FA0005B062046049901F0EDFB608D0028C2D14C
:101FB000324620460E9901F01BFC002807D0606CC9
:101FC000042802D0032007B0F0BD0120FBE7206801
:101FD0002022C26120684168044B194041606A7048
:101FE000AF702F700020EEE70220ECE700E800FE63
:101FF000FFB5054604464035687883B0202876D181
:102000000C98002874D00D98002871D028780128E9
:102010006DD001202870FFF795FE07460122009041
:102020001923D103204601F0BFFB002853D1212002
:1020300068704020A870002666640C9860620D9855
:10204000608566630E980090019704A90EC920462A
:1020500001F063FB002804D0606C2E7004286AD065
:1020600039E0608DFF2805D9FF22228501231B0658
:10207000009606E0608D20850096208D0123C2B277
:102080005B062046049901F07DFB3A4620460E99F6
:1020900001F0D5FB002803D0606C04284BD01AE077
:1020A000606A411C6162216800788862608D401E10
:1020B0006085208D401E0004000C208524D1608D99
:1020C000002821D000970022802120460E9B01F09D
:1020D0006BFB002802D0032007B0F0BD608DFF2805
:1020E00007D9FF22228501231B06009608E024E081
:1020F00021E0608D20850096208D0123C2B25B0611
:102100002046049901F03EFB608D0028BDD13A467F
:1021100020460E9901F06CFB0028BDD120682021DB
:10212000C16120684268064B1A4042606970AE7017
:102130002E700020D0E70120CEE70220CCE700007F
:1021400000E800FE00B500680D4987B0884215D14F
:10215000C0200090122001210190032002910491DF
:10216000039069460748FFF73DFD0748C269012112
:1021700049050A43C261C0690840059007B000BD27
:1021800000540040000400480010024070B50400F4
:102190000FD021681348086021681348086003CCF9
:1021A00041602068083C21688860FFF7CBFD054648
:1021B00008E0012070BDFFF7C5FD401B272801D9AD
:1021C000032070BD2068C0680028F4D1206802692F
:1021D000E1688A4201D0016101E004490160002008
:1021E00070BD0000CCCC000055550000AAAA00002C
:1021F000006802490160002070470000AAAA0000A0
:1022000002480168491C0160704700009C000020E2
:1022100010B506480168102211430160002000F04B
:1022200007F800F041F8002010BD00000020024037
:1022300000B5014687B00022112000F05BF81120A4
:1022400000F04EF81348C26910210A43C261C06908
:102250000840059004A9684600F06AF900F08AF980
:102260000D49FDF77DFF0E490C4A0A600D4A401EDC
:10227000CA604860002008618860084600F06AFD76
:10228000002802D0012007B000BD054800F0B6FDCF
:10229000F9E700000010024040420F00001000402B
:1022A000C41B0020E703000008B50C488169012227
:1022B0001143816180691040002200901146501F37
:1022C00000F018F803210022481F00F013F8032142
:1022D0000022081F00F00EF808BD000000100240A8
:1022E000C106C90E012088400149086070470000FE
:1022F00000E100E010B501F0B1FC10BDBFF34F8F5D
:1023000004490348C860BFF34F8F00BFFDE70000DA
:102310000400FA0500ED00E0F8B504460068364D0B
:10232000C00354D5E8690026C00007D4E869290431
:102330000843E861E8690840012600902F480168D9
:10234000C90511D4014608688A1510430860FFF7D3
:10235000F9FC074604E0FFF7F5FCC01B642823D80E
:1023600026480068C005F6D5286A032109020840FE
:102370001FD062680A4082421BD0286A2A6A8843BA
:10238000012109040A432A622A6A8A432A622862CE
:10239000C0070ED0FFF7D6FC074607E0FFF7D2FCD8
:1023A000C11B1748814201D90320F8BD286A800764
:1023B000F4D5286A0321090288436168084328622A
:1023C000002E04D0E869012109078843E8612078DC
:1023D000C00705D0286BA1688008800008432863E7
:1023E0002078800605D5286B10218843E1680843D2
:1023F00028630020F8BD000000100240007000407B
:1024000088130000F8B5044644480E460068C0072B
:10241000C00FB0420AD2414801684908490031431F
:1024200001600068C007C00FB0425CD120783C4F0B
:10243000800705D57868F0218843A1680843786053
:102440002078C0073FD06068012813D0396802287F
:1024500013D08907002946DA796889088900014381
:102460007960FFF76FFC0546606801280DD00228EF
:1024700017D024E039688903ECE78901EAE7FFF720
:1024800061FC411B2748814217D878680007800FFC
:102490000128F4D117E0FFF755FC411B2148814288
:1024A0000BD878680007800F0228F4D10BE0FFF703
:1024B00049FC411B1B48814201D90320F8BD7868C3
:1024C0000007800FF3D115480168C907C90FB14251
:1024D0000BD9016849084900314301600068C00711
:1024E000C00FB04201D00120F8BD2078400706D5CA
:1024F0007868072109028843E1680843786000F0A2
:1025000049F87968084A0906090F515CC84007492B
:1025100008600020FFF78CFE0020F8BD002002407C
:10252000001002408813000090A700080418002043
:1025300010B5072202600A4A53689B079B0F43604D
:102540005368F02423408360526807231B021A401B
:10255000C26004480068C007C00F086010BD0000DA
:10256000001002400020024001480068704700004F
:10257000041800200448054900684968044A4905D0
:10258000490F515CC84070470418002000100240F9
:10259000A0A7000810B511A00FC888B06C460FC4E2
:1025A00012A00FC80FC4154B5A680C2011460140E9
:1025B000134804290FD008290DD19102090F6C4648
:1025C000645CD96A04AB0907090FD203595C920F06
:1025D000FDF7C6FD604308B010BD0000020304050E
:1025E000060708090A0B0C0D0E0F10100102030458
:1025F00005060708090A0B0C0D0E0F10001002400B
:1026000000127A00FEB504460078D54DC00748D0C8
:1026100068680007800F012819D068680007800FDC
:10262000022804D16868C003800F02280FD001215E
:1026300060680904012811D08A00002801D005280B
:1026400016D02868884328602868904308E02868E6
:10265000800326D56068002873D022E028680843EC
:1026600028606068002810D0FFF76CFB064608E081
:10267000286810432860F1E7FFF764FB801B64289B
:1026800070D828688003F7D50BE0FFF75BFB0646A0
:1026900004E0FFF757FB801B6428F1D8286880030B
:1026A000F7D420780126800700283DDA6868000703
:1026B000800F13D068680007800F022804D1686873
:1026C000C003800F012809D0E068002828681CD0CA
:1026D00030432860FFF736FB07460BE02868800789
:1026E0000BD5E06801282CD107E0FFF72BFBC01BBE
:1026F0000228C5D828688007F7D52868F8218843BC
:102700002169C900084328600EE0400840002860A5
:10271000FFF718FB074604E0FFF714FBC01B022875
:10272000AED828688007F7D42078000723D5E06961
:102730000028686A0FD030436862FFF703FB074642
:1027400005E00AE1FFF7FEFAC01B022898D8686A84
:102750008007F7D50FE0400840006862FFF7F2FA03
:10276000074605E0A4E0FFF7EDFAC01B022887D872
:10277000686A8007F7D4207804274007002860DAC9
:1027800000200190E869C00008D4E869B906084350
:10279000E861E869084000900120019071480168F3
:1027A000C90511D40168821511430160FFF7CAFA07
:1027B000009005E0FFF7C6FA0099401A642877D820
:1027C00068480068C005F5D5A06801280AD000282F
:1027D00001D0052810D0286A400840002862286AE5
:1027E000B84301E0286A30432862A068002812D06C
:1027F000FFF7A8FA00900AE0286A38432862F1E758
:10280000FFF7A0FA0099411A5748814250D8286A28
:102810008007F5D50DE0FFF795FA009006E0FFF789
:1028200091FA0099411A5048814241D8286A80079C
:10283000F5D40198002804D0E869012109078843EC
:10284000E8612078C0063CD5606901280CD0401DA5
:10285000686B23D038436863686B40084000686346
:10286000FFF770FA064629E0686B38436863686BC7
:1028700030436863FFF766FA064604E0FFF762FA42
:10288000801B022862D8686B8007F7D5686BF82137
:102890008843A169C9000843686312E0B8436863CC
:1028A000696BF8208143A069C0000143696308E0B7
:1028B0004CE0FFF747FA801B022847D8686B800777
:1028C000F7D4206A002846D069680907890F0229D1
:1028D00043D001273F060228286805D0B843286066
:1028E000FFF730FA044633E0B8432860FFF72AFACE
:1028F000064604E0FFF726FA801B022826D828683F
:102900008001F7D4E86AE16A000900010843E8623F
:10291000616AA06A084369687B22D2039143084335
:102920006860286838432860FFF70CFA044604E022
:10293000FFF708FA001B022808D828688001F7D59D
:1029400009E0FFF7FFF9001B022801D90320FEBDB3
:1029500028688001F5D40020FEBD0120FEBD0000E6
:1029600000100240007000408813000010B500689D
:102970000B464068C021C94301400002000ECC0450
:10298000D870E40E5C708C06A40E0904490F9C708C
:102990001970002A0AD101F04DFAD870587801F068
:1029A00049FA5870987801F045FA9870002010BDE7
:1029B00030B50B460168896A5960016809694904A4
:1029C000490C9960006804680F482146014088025C
:1029D0004D04800E18706D0E49065D70490E997099
:1029E0006102490E40242140D970002A0AD101F029
:1029F00021FA1870587801F01DFA5870987801F093
:102A000019FA9870002030BD7F7F7F0070B50400F8
:102A100003D0607F002802D006E0012070BD0020B6
:102A20002077204600F04CF8022060772168CA2009
:102A30004862216853204862204601F00EFAFF25C3
:102A40000426002824D1206881681C4A1140816036
:102A50002068816862686369114322691A431143DF
:102A600081602168E0680861206801692289120498
:102A7000114301612068C16880229143C1602068D0
:102A80008068800608D4204600F000F9002803D0B2
:102A9000206845626677C0E72068016C01229204D5
:102AA000914301642068016CA269114301642068AC
:102AB000456201206077002070BD0000BFFF8FFFDE
:102AC00000680549884205D10448016A0122D20301
:102AD00011430162704700000028004000100240CE
:102AE000F8B50446007F0B46012823D0012020774B
:102AF000022060775878002A1ED001F09BF9987860
:102B000001F098F9D8789D78000405435878197831
:102B100000024903084305432168CA20486221682E
:102B200053204862204601F098F90026FF2700282C
:102B30002AD117E00220F8BDC10603D5EF210840D5
:102B40000A305870D87801F07DF90504587801F002
:102B500079F900020543987801F074F90543187873
:102B60004003D8E70F480540206845602068C168E9
:102B700080229143C1602068806880060BD4204683
:102B800000F084F8002806D02068476204206077AF
:102B900026770120F8BD20684762012060772677FC
:102BA0000020F8BD3FFFFF00F8B50446007F0D464A
:102BB00001280ED0012020770220607720680026AF
:102BC0008068002A07D0400618D5287801F032F92D
:102BD00015E00220F8BD400600D4EE70287801F020
:102BE00031F90704687801F02DF900020743A8784D
:102BF00001F028F90743E878000409E0EE7028782E
:102C0000AF78000407436878E978000209040843B4
:102C100007432168CA204862216853204862204641
:102C200001F01BF900281ED11748074020680760F3
:102C3000206881680122920491438160E9682869D3
:102C4000014320688268114381602068C168802246
:102C50009143C1602068806880060CD4204600F053
:102C600015F8002807D02168FF204862042060770B
:102C700026770120F8BD2168FF2048620120607797
:102C800026770020F8BD00007F7F7F0070B50546E5
:102C90000068C168A0229143C160FFF753F87D2608
:102CA0000446F60006E0FFF74DF8001BB04201D9DC
:102CB000032070BD2868C0688006F4D5002070BD70
:102CC000042204490428086902D09043086170472F
:102CD0001043FBE700E000E0094910B5401E8842C0
:102CE00001D9012010BD074C60610321081F00F0CD
:102CF000B5FF0020A06107202061002010BD00006A
:102D0000FFFFFF0000E000E07047704770B502462B
:102D10002032137F012B1BD0012414770223537719
:102D200003685D687026B5435D6003685D680E6882
:102D300035435D6003689D688026B5439D600068EB
:102D4000836849680B43836054770020107770BD17
:102D5000022070BD70B5040005D025462035687F7F
:102D6000002802D006E0012070BD00202877204610
:102D700000F00AF802206877211D206801F008FAA7
:102D800001206877002070BD08B50068174A18490F
:102D9000904207D18A69C01402438A61896901405F
:102DA000009108BD134A90420DD1CA690220024326
:102DB000CA61C96900220140009103211020FFF778
:102DC00099FA10200FE00C4A9042EAD1CA698015A6
:102DD0000243CA61C9690022014000910321132006
:102DE000FFF788FA1320FFF77BFA08BD002C01409B
:102DF0000010024000040040002000400168CA6842
:102E000001231A43CA600068016819430160002069
:102E10007047F8B5054604462035287F012817D0AD
:102E200001272F7702206877206882687726FF23A2
:102E3000B2431B029A4382600868502836D00EDCE9
:102E4000202856D006DC00284DD010283FD14DE078
:102E50000220F8BD30284FD0402838D13BE0602810
:102E60002CD0702816D001221203801A0DD0904267
:102E70002DD1CB684A688968206801F0CDF92068B7
:102E800081680122920311430EE020688168C9081D
:102E9000C90009E0CB684A688968206801F0BCF97C
:102EA00020688168B1433143816010E0CA68496895
:102EB000206801F0C4F95021206806E0CA6849681A
:102EC000206801F0CDF96021206801F0B0F96F773A
:102ED00000202877F8BDCA684968206801F0AFF97A
:102EE00040212068F1E700212068EEE710212068EA
:102EF000EBE720212068E8E730212068E5E770470C
:102F000070B50446006801690025C9438907002996
:102F100015DBC168C943890711D4E91E016101208D
:102F20002077206880698007204602D0FFF7E7FFFE
:102F300004E000F096F8204600F094F82577206829
:102F40000169C943490717D4C168C943490713D464
:102F50000421C9430161022020772068806980052F
:102F6000800F204602D0FFF7CAFF04E000F079F896
:102F7000204600F077F8257720680169C9430907E2
:102F800016D4C168C943090712D40821C943016195
:102F9000042020772068C0698007204602D0FFF710
:102FA000AEFF04E000F05DF8204600F05BF8257706
:102FB00020680169C943C90617D4C168C943C90655
:102FC00013D41021C9430161082020772068C0690B
:102FD0008005800F204602D0FFF791FF04E000F04B
:102FE00040F8204600F03EF8257720680169C94383
:102FF000C90708D1C168C943C90704D1891E016145
:10300000204600F031F820680169C943090609D457
:10301000C168C943090605D48021C943016120461E
:10302000FFF772FE20680169C943490609D4C168E7
:10303000C943490605D44021C9430161204600F037
:10304000CFF820680169C943890609D4C168C9431A
:10305000890605D42021C94301612046FFF755FEAA
:1030600070BD704770470000F8B5074600684549D5
:103070000024454E0125884252D14449097800294F
:1030800002D0F188491CF180F18819225201914245
:103090000BD33F49F4800978012902D0022902D0DC
:1030A00003E03C4900E03C490D703C4909780029A7
:1030B00002D03189491C31813189FF22F532914298
:1030C00002D3374934810D7036490978002902D07E
:1030D0007189491C71817189002902D0324974813A
:1030E0000D7032490978002902D0B189491CB1819B
:1030F000B1897D225201914202D32D49B4810D70D4
:103100002C4A1178002902D0F189491CF181F189FA
:103110007D239B01994203D32749F4810C701470DD
:103120002649884201D1FFF76BF8254938680968BC
:10313000884226D1B078401CC0B2B070032801D3B9
:10314000B470F5701F4B35711868B1691F4A401A89
:103150001D4908601068316A401A1D4908601D4900
:103160000868B56A401B1C4D28601868F461B0619E
:103170001068746230620868F462B0621748FFF742
:1031800037F8F8BD0020004000000020B300002008
:10319000A2000020AD000020AE000020B200002000
:1031A000AF000020B4000020B0000020B5000020D7
:1031B000B1000020B8000020B7000020001000403F
:1031C00020190020BC000020C8000020C000002002
:1031D000CC000020C4000020D0000020B018002047
:1031E00070477047F8B502680446D0691168050752
:1031F0002D0F07D1830605D58B0603D5204601F098
:10320000D6F8F8BD9368002D64D0DD07ED0FFF26DA
:1032100021360E402E435DD0C60706D0CE0504D51C
:1032200001261662E26E3243E26686070222042716
:10323000002E06DADE0704D026683262E66E3E43D0
:10324000E666460706D5DB0704D023681F62E36EF7
:103250001343E366020709D520220A402A4305D01A
:10326000236808221A62E36E1343E366E26E002AC3
:10327000C7D0800604D5880602D5204601F097F80D
:10328000E06E000703D42068806840061CD5204605
:1032900001F071F820688168490611D581684022E3
:1032A00091438160606E00280AD012494163606ECC
:1032B000FEF77AFB0028A4D0606E416B8847F8BD0A
:1032C0002046FFF78EFFF8BD2046FFF78AFF00205B
:1032D000E066F8BD020605D50A0603D5204601F0D2
:1032E00051F9F8BD4006FCD54806FAD5204601F054
:1032F00051F8F8BD6343000870B5040005D02546B9
:103300006035687A002802D006E0012070BD0020F8
:103310002872204600F026F8242068722068016890
:10332000490849000160204601F080F80128EDD0ED
:10333000606A002802D0204600F0A5FF206841689E
:103340000122D202914341602068816808229143A2
:10335000816020680168012211430160204600F06D
:10336000F7FF70BDF0B501682D4E092000232D4AEE
:10337000022403250127C00687B0B14215D1966902
:1033800061030E439661926901940A4069020592B5
:10339000009102AEA8C66946FEF724FC0022114641
:1033A0001B20FEF7A7FF1B2018E01F4EB14219D1CA
:1033B000D669012149040E43D661D26901940A40BD
:1033C0000C210592009102AEA8C66946FEF70AFCE0
:1033D000002203211C20FEF78DFF1C20FEF780FF3A
:1033E00007B0F0BD11488142FAD1D16901208004B3
:1033F0000143D161D1690395014003200591800209
:103400000090042004900194029369460848FEF756
:10341000E9FB002203211D20FEF76CFF1D20DDE7E4
:1034200000380140001002400044004000480040C5
:103430000004004870B5034660331C469B7A202B7D
:1034400001D0022070BD00290BD0002A09D001252F
:1034500083682D03AB4206D10669002E03D1CE0747
:1034600001D0012070BD4165014640310A834A8385
:10347000FF22AB4204D10369002B12D1124A10E0A3
:103480007F25002B08D00122120793420AD102693E
:10349000002A04D03F2204E00369002B01D08D8371
:1034A00000E08A830021C1662221A17201688A6836
:1034B00001231A438A6000680168FF222132114308
:1034C0000160002070BD0000FF01000038B5044617
:1034D00000681649164D884212D11748154B0188CD
:1034E0002A785A54491C89B2012252020180914221
:1034F00001D30021018001220D491048FFF79AFFF6
:103500000F492068884210D10E49687808706946D2
:10351000087001220C48009900F022FC0449074879
:103520000122491C7030FFF785FF38BD003801408B
:1035300000000020205A0020E8000020A0190020F0
:1035400000440040E00000206C580020FFB5074612
:1035500005466037787A83B00C46202858D1002C75
:103560000CD00598002809D00120A96800038142E9
:1035700007D12869002804D1E00702D0012007B054
:10358000F0BD387A012843D0012038720020E86667
:1035900021207872FEF7D6FB01902E464036059822
:1035A00030820598708218E0708A401E70820698FA
:1035B0000090002280212846019B01F016F8002887
:1035C00018D10120A9680003814202D1286900288E
:1035D00012D0296820780885641C708A0028E3D1FD
:1035E00006980090002240212846019B00F0FDFF34
:1035F000002808D00320C2E720882968C005C00D34
:103600000885A41CE9E72020787200203872B6E70C
:103610000220B4E77047FEE701688A69D243920747
:1036200001D400228A6200688169C943C90703D0B6
:10363000816901221143816170470000F8B5044699
:103640000068174680690E46C043C0062CD4254644
:10365000403520688069C04380060FD5701CF8D0C3
:10366000002E04D0FEF76EFBC01BB042F1D9202023
:1036700068700020A87028700320F8BD2168102011
:10368000C86120682026C6612046FFF7C5FF206874
:103690004168064A11404160042060646E70002059
:1036A000A87028700120F8BD0020F8BD00E800FED9
:1036B000F8B504460120164640031D46DAB20090D4
:1036C000079F0023204600F05DF83A462046069901
:1036D00000F0B5F8002803D0606C04281BD018E077
:1036E0002846F5B2012809D02168300A88623A4696
:1036F0002046069900F0A3F80028EDD120688562E5
:103700000097002240212046069B00F04DF800283B
:1037100000D00320F8BD0120F8BDF8B50446012013
:10372000164640031D46DAB2C3020090079F2046AA
:1037300000F028F83A462046069900F080F8002864
:1037400003D0606C04281BD018E02846F5B201288D
:1037500009D02168300A88623A462046069900F06E
:103760006EF80028EDD12068856200970022802144
:103770002046069B00F018F8002800D00320F8BD72
:103780000120F8BD70B50068049D44688905890D65
:103790001204044E1143194334402943214341602C
:1037A00070BD0000009800FCF8B51C4617460E4698
:1037B000054611E0601C0FD0002C05D0FEF7C2FAC0
:1037C0000699401AA04207D9202040356870002091
:1037D000A87028700320F8BD2868816930468843A6
:1037E00004D00020B842E5D00020F8BD0120F9E760
:1037F00070B516460D4604461AE032462946204664
:10380000FFF71CFF002801D0012070BD002D04D05F
:10381000FEF798FA801BA8420AD9616C2020014368
:103820006164403460700020A0702070032070BD7F
:1038300020688069C0438006DFD4002070BD70B569
:1038400016460C4605461CE0324621462846FFF740
:10385000F5FE002801D0012070BD601C11D0002CA5
:1038600004D0FEF76FFA801BA0420AD9696C2020B1
:1038700001436964403568700020A87028700320F7
:1038800070BD28688069C0438007DDD4002070BD0A
:10389000002809D0014680310022CA640A65C82187
:1038A000C0308182027201207047CC3003C8884248
:1038B00001D1012070470020704710B504468034C4
:1038C000206DC821401CFCF761FCE06C814201D1F5
:1038D000012010BD002010BD10B509240122E4060E
:1038E00011462046FEF727FA0548FEF730F9002278
:1038F00001212046FEF71FFA6420FEF728F910BDCB
:10390000DC0500003EB515481349016049054160DA
:1039100000210246012404250C32816032C28161FB
:10392000C16141620462FF220463C2324463826265
:10393000C162FDF7DBFE002800D0FEE70120000396
:1039400001906946009502940448FDF743FE002863
:1039500000D0FEE73EBD0000002401401818002002
:10396000F0B5394887B042690121C9040A43426170
:1039700042690A4005924269C9000A4342614269AC
:103980000A400592426949110A43426142690A406C
:103990000592426949000A43426140694C1108405E
:1039A0000590002221462948FEF7C5F9284E092036
:1039B00000223146C006FEF7BEF9264F00223946E6
:1039C0002548FEF7B8F900940024012501950294DA
:1039D00069461E480394FEF705F9092002946946DA
:1039E000C006009601950394FEF7FCF8FF206130B5
:1039F00000901A480190092069460294C006FEF71B
:103A0000F1F8802000900920019469460294C006D4
:103A1000FEF7E8F8029469460F4800970195039471
:103A2000FEF7E0F8182000900194694602940A48D5
:103A3000FEF7D8F8002203210720FEF75BFC0720E1
:103A4000FEF74EFC07B0F0BD001002400008004831
:103A50000190000023320000000400480000111013
:103A600010B5124810490160114941600021816080
:103A70000161416181610122C161C2600162FEF7A1
:103A8000B1F9002800D0FEE700210848FEF760F9F0
:103A9000002800D0FEE700210448FEF77EF9002848
:103AA00000D0FEE710BD0000005400406418002064
:103AB0005D3E302010B51849184886B0002412C069
:103AC000632101608460C460154904614160083865
:103AD000FEF79CFF002800D0FEE7684604704470A3
:103AE00084700394012269460C480494FFF75CF843
:103AF000002800D0FEE701206946087548758875E2
:103B0000CC75024605A90548FEF7EAFF002800D05B
:103B1000FEE706B010BD000000280040C0180020DD
:103B2000C309000010B5144886B012490160002492
:103B30002F21846041600461446101218461C1607E
:103B4000FFF708F9002800D0FEE7012000030090ED
:103B500069460948FFF75DF9002800D0FEE70494A4
:103B600004A905480594FFF7D1F8002800D0FEE726
:103B700006B010BD002C0140E018002010B514481C
:103B800086B01249016000241249846041600461DA
:103B900011498461C160FFF7DDF8002800D0FEE71D
:103BA00001200003009069460948FFF732F9002818
:103BB00000D0FEE7049404A905480594FFF7A6F891
:103BC000002800D0FEE706B010BD00000004004051
:103BD00020190020BF1200000F27000010B50E486A
:103BE0000C490160E1214902416000218160C1600E
:103BF00001618161C1610C22016242614162FFF792
:103C00007BFB002800D0FEE7012204490248FFF7B1
:103C100011FC10BD00380140A01900200000002058
:103C200010B50C480A4901604B21C90141600021CF
:103C30008160C16001618161C1610C2201624261E8
:103C40004162FFF759FB002800D0FEE710BD0000DD
:103C500000440040101A0020704700008307FF2234
:103C6000DB0E9A408907090E994000280BDA0007FD
:103C7000000F0838830808489B001818C36993434D
:103C80000B43C3617047830804489B0018180368FE
:103C900093430B430360704700ED00E000E400E055
:103CA00008B569461C4800F03BF800280ED068466D
:103CB0000078030000F017FD0D0A080B0E11141711
:103CC0001A1D2023262B0A0004F08BFD08BD04F0EA
:103CD00083FD08BD05F05CFD08BD05F08DFD08BD48
:103CE00005F024FD08BD05F03DFB08BD05F02CFCEA
:103CF00008BD05F08BFA08BD05F060FB08BD05F0B6
:103D0000E1FC08BD0121072000F028F908BD0348A7
:103D1000C07A05F073FB08BD445900205C660020A2
:103D2000F8B50E460446FFF7C0FD002816D125461B
:103D3000C035287A012811D027468037F86CC82171
:103D4000401CFCF723FAF96409190122304602F0FD
:103D50004FFEA88A401CA8820120F8BD0020F8BDB3
:103D6000F7B517460646FFF7A8FD002809D13546E6
:103D70000120C035344680342872012F03D0002F33
:103D80000DD00020FEBD206DC821401CFCF7FEF9BF
:103D900088192165012201A902F02AFE0AE0E06CDF
:103DA0000122801901A902F023FEE06C002808D04E
:103DB000401EE064A88A401EA882002028720120CC
:103DC000FEBDC720F5E7000010B52320FDF73EFB40
:103DD000542148430549401805A1401CFCF7AEFAA0
:103DE0000221232000F0AAF810BD000000010020ED
:103DF00041542B514745504F463D302C323535000C
:103E000010B52320FDF722FB5421484305494018F3
:103E100005A1401CFCF792FA0221232000F08EF845
:103E200010BD00000001002041542B514745504F68
:103E3000463D320001090A2200075143000F401895
:103E4000C0B27047002102E00A38C0B2491C0A28FB
:103E5000FAD20907090E0843704770B50546006895
:103E6000C168490613D40021C943C160FDF76AFF48
:103E70007D260446F60006E0FDF764FF001BB04215
:103E800001D9032070BD2868C0684006F4D5002021
:103E900070BD704770B5FFB0012681B00446760250
:103EA00031466846FCF7FDF92046FDF7CFFA0025BC
:103EB000411C2DD05421484318494418601CFCF77C
:103EC00028FA81B2601C05F043F9022114A005F024
:103ED0003FF9E06CFDF73BFE3146684602F058F9C9
:103EE000064601466A460FA000F0C2FB214641315A
:103EF0006846FCF7EDF9002806D0226D002A02D0B2
:103F0000314668469047012528467FB001B070BD14
:103F100007A000F0ADFB0020F7E700000001002043
:103F20000D0A00007263762025642C25730D0A00AB
:103F30006572726F7220636D640D0A0070B50C4675
:103F400005462846FFF7A6FF002801D0012070BDD6
:103F5000641E2406240EF4D1002070BD10B5FDF7B8
:103F600075FA411C12D0542148430A494418601C78
:103F7000FCF7CFF981B2601C05F0EAF8022106A037
:103F800005F0E6F8E06CFDF7E2FD10BD03A000F0DF
:103F90006FFB10BD000100200D0A00006572726FFA
:103FA0007220636D640D0A000B49012048710B48B3
:103FB000FFF76EFC0A4C05F00BFE6079002802D07A
:103FC000012803D004E001F097F801E005F052F871
:103FD000012002F029FDEEE70000002044590020F6
:103FE0009C6600201B48FEF709FF1A484038FEF780
:103FF00005FF1948FDF796FA402218491648FDF7C3
:1040000083FC1748FFF744FC144801221549703817
:10401000FFF710FA7D200001FDF799FD12490020FD
:10402000124C0870607900280DD104F0A9FD04F04D
:10403000DDFD01F019F902F0B9FC04F05BFC02F0BF
:10404000DFF801F039FE05F0A3F8012002F0ECFCE6
:10405000E8E700006019002018180020801A0020EE
:104060006C58002001000020B70000209C66002052
:1040700010B502F0E9FC10BD70B594B00B200090B3
:10408000012001900390102507900495C00309902A
:104090004001022600240A9008960B946846FEF719
:1040A000B1FA002800D0FEE707200C900E94012101
:1040B0000D960F940CA8FEF7A5F9002800D0FEE796
:1040C0000F4810900320129000021190139510A831
:1040D000FEF722F9002800D0FEE7FEF745FA7D2121
:1040E000C900FCF73DF8FEF7F7FD0420FEF7E8FDF8
:1040F00003210022081FFEF7FDF814B070BD000078
:104100002100010013480168012211430160416848
:10411000114A114041600168104A11400160016874
:10412000012292049143016041683F2212049143AD
:104130004160C16A09090901C162016BFF221432A1
:1041400091430163416B490849004163002181604B
:1041500070470000001002400CB8FF08FFFFF6FE99
:1041600010B50248FEF7CCFE10BD0000601900201B
:1041700010B50248FEF7C4FE10BD00002019002053
:1041800010B50248FEF7BCFE10BD0000C41B0020A5
:10419000F0B502681A4B1B4C984201D0A04203D1E3
:1041A0007025AA434D682A43174D184E184F984260
:1041B0000AD0A04208D0174CA04205D0A84203D094
:1041C000B04201D0B84204D103242402A243CC68F7
:1041D00022438024A2434C69224302608A68C2625F
:1041E0000A688262984205D0A84203D0B04201D04A
:1041F000B84201D10969016301214161F0BD0000AC
:10420000002C0140000400400040014000440140F7
:10421000004801400020004030B58468FF252D0291
:104220001B021343AC430B432343836030BD8268BE
:1042300070239A430A4307210A438260704730B5CE
:10424000036A046A6408640004628469F025AC436C
:10425000120122430A24A3430B438261036230BD4F
:1042600030B5036A1024A34303628369046A0F25EF
:104270002D031203AB431A43A0239C43090121439E
:104280008261016230BD10B5818CC90707D0016819
:104290004A6801235B049A43836A1A434A60818C0B
:1042A000890707D501684A6801231B049A43C36A3A
:1042B0001A434A60818C490707D501684A6801237F
:1042C0009B049A43036B1A434A60818C090707D504
:1042D00001684A680123DB039A43436B1A434A602F
:1042E000818CC90607D501688A6801231B039A439C
:1042F000836B1A438A60818C890607D501688A68B6
:1043000001235B039A43C36B1A438A60818C49067D
:1043100012D501684B6801221205046C93432343B4
:104320004B60016C914207D101684A6803235B0529
:104330009A43436C1A434A60818C090607D5016889
:104340004A680123DB04806C9A4302434A6010BD33
:104350000022C266202160304172817202721046D2
:10436000704710B5406A0022014640314A834A82B4
:10437000FEF737FF10BD01680A68FF2321339A4317
:104380000A6001688A68520852008A602021603001
:104390008172704710B501680A6840239A430A6029
:1043A000202269210A54FFF735F9002010BD70B5AD
:1043B0000246403201466031938B8D7A0C4601688B
:1043C000222D05D08869082210438861022070BD23
:1043D000898C012685683603B54202D10569002D16
:1043E0000BD01940436D5D1C45651970518B491EFA
:1043F0000904090C518307D015E0456D1940298047
:10440000416D891C4165F1E701680A68FF2321338A
:104410009A430A6001688A68520852008A60202123
:10442000A172FFF753F8002070BD0000F8B50446F4
:10443000A3682269E56913436269102000212A43B9
:10444000134322680E461568444F3D401D431560D6
:104450002268536803252D03AB43E5682B43536063
:10446000A369226A1343226895680B273F02BD4364
:104470001D4395603A4A2568954210D1394A126B1E
:104480009207920F1AD0012A05D0022A05D0032ADA
:1044900015D1022013E0042011E008200FE0324A79
:1044A00095420BD0314A954208D0314A954205D009
:1044B000304A954202D0304A954200D10020012274
:1044C000E369D203934224D100280CD002280DD0F6
:1044D000042813D0082817D001260A09120108075A
:1044E000400F10432FE0FEF745F809E06168234ACA
:1044F00048088018FBF734FE81B2EEE7FEF74AF871
:10450000616840004A08F4E7616801224808120423
:10451000EFE7002808D0022809D004280BD008288B
:1045200014D001263046F8BDFEF724F805E0616896
:10453000134A48080CE0FEF72DF861684A08801815
:10454000FBF70EFE80B22168C860EBE7616848089F
:104550008018FBF705FE80B2E860E3E7F369FFEF40
:104560000038014000100240004400400048004074
:10457000004C004000500040001401400024F400B2
:1045800000127A006921095C212901D002207047BC
:10459000014640314A8A002A12D0012382681B0357
:1045A0009A4202D10269002A15D0C26C531CC3641E
:1045B000006812780285488A401E488200207047B1
:1045C00001680A6880239A430A60006801684022F3
:1045D00011430160F2E7C26C03681288D205D20D64
:1045E0001A85C26C921CC264E5E7FFB581B01E4615
:1045F000174605460A9C1CE0601C1AD0002C04D00B
:10460000FDF7A0FB801BA04213D928680168FF2298
:10461000A13291430160286881684908490081609E
:10462000202060356872A87200202872032005B02F
:10463000F0BD2868C1690298884304D00020B842C0
:10464000DAD00020F3E70120F9E7000010B50248B6
:10465000FEF7C8FD10BD0000A019002010B50248EB
:10466000FEF7C0FD10BD0000101A0020FEE700009C
:104670000FB410B503A9044B044A029800F022F9C4
:1046800010BC08BC04B018474D5C00080818002096
:104690000FB410B504A9074B02AA039800F012F951
:1046A000044602A9002000F0A9FC204610BC08BC6A
:1046B00004B01847FD4F00082021020C01D0102142
:1046C0001046020A01D010460839020901D01046EE
:1046D000091F820801D01046891E420801D0881E99
:1046E0007047081A704730B47446641E2578641CFD
:1046F000AB4200D21D46635D5B00E31830BC184737
:1047000000487047141800200148006870470000F6
:104710001418002002E008C8121F08C1002AFAD1AC
:1047200070477047002001E001C1121F002AFBD131
:10473000704700000149086070470000141800200D
:10474000F0B51FB486B00998089A030D0021024302
:1047500014D05148514A1818504305141198012893
:1047600010981AD0281A401C00264D4F4D4900962B
:1047700001910490002812DA444211E011980124BA
:1047800049A3012801D11098C1430698119A846069
:104790000360C26041600BB0F0BD4042E4E70446F4
:1047A000210500203F4A001C51410391029012E074
:1047B000E00707D032463B4601990098FBF70EFF11
:1047C0000191009032463B4610461946FBF706FF22
:1047D00006460F466410002CEAD10498039B00287B
:1047E000029A0999089806DAFBF7F8FE019B009AED
:1047F000FBF7F4FE05E0FBF759FF019B009AFBF77E
:1048000055FF04460E460022284BFCF7A3FA03D8B6
:104810000020C043014607E00022254B20463146D8
:10482000FBF72AFEFCF776FA102409E0002C0ADBDD
:104830000A220023FCF78CF8079B30321A55641EBD
:1048400002460A43F2D11122641C079B121B1C1959
:10485000119B012B03D0012308430ED10AE008432A
:1048600004D0112010900020119077E71098151AAD
:104870006D1E0BE01098824202DD00236D1C03E0E8
:10488000824201DA00236D1E002BEED006981199AA
:104890008260C16030C07EE701FCFFFF104D000068
:1048A000000014400000F03F300000000000F04322
:1048B0000000E03F30380A2801D201207047002074
:1048C00070470000FFB597B00646002518E225287E
:1048D00077D100242746FD49049400E00443761C68
:1048E00032780120203A90400842F7D130782A28C7
:1048F0000ED00222307801463039092916D80499A1
:104900000A235943303940181443761C0490F1E7C8
:10491000189802C804911890002904DA0120400375
:1049200004434842049002200443761C30782E2829
:1049300014D1042004437078761C2A2809D11898D1
:10494000761C80C8189009E00A214F43303FC719F0
:10495000761C3078014630390929F5D930786C2831
:1049600010D006DC4C281AD068280ED06A2817D13F
:1049700004E0742813D07A2812D110E001204005F9
:1049800004430CE00121090501E0032109050C4362
:104990007178814203D1012000052418761C761C11
:1049A0003078119066280BD013DC58287DD009DCB4
:1049B00000287BD04528F6D04628F4D047281AD1C5
:1049C000A5E118E0632835D0642870D0652812D19D
:1049D0009DE170286CD008DC6728F1D069287BD075
:1049E0006E280DD06F2806D1BAE073282ED0752816
:1049F00071D0782859D01A9A199990476D1C7EE188
:104A00006002400F022809D003280DD0042818980E
:104A100001680DD00D60001D189070E11898EA171C
:104A200001680D604A60F6E7189801680D80F2E7AA
:104A30000D70F0E718986A4601781172001D189001
:104A40000020507202A80090012005E0189802C8CA
:104A5000189000200091C04361070DD5002101E0AE
:104A60000199491C0191B94212DA8142F8DB009A9E
:104A7000515C0029F4D10BE0002101E00199491CAF
:104A800001918142FADB019A0099895C0029F5D1F4
:104A9000019904981A9B471A21463846199A00F042
:104AA00097FA0199401945180BE04FE02CE113E00B
:104AB0004EE0009800990078491C00911A9A1999C3
:104AC00090470198401E0190401CF2D12146384683
:104AD0001A9B199A10E137E00A20002100900191F9
:104AE0006002410F022907D0189A01CA1892C21712
:104AF0009446032908D00AE01898C01DC108C900CF
:104B000005C91891944607E000B2C21794460429DB
:104B100002D140B2C1178C4600226146944506DAA4
:104B20000A460021404291418C462D2102E0210598
:104B300004D52B216A461173012103E0E10701D05E
:104B40002021F7E7029155E00A200AE0102008E052
:104B5000102000900021042004430191082703E065
:104B600008200021019100906002410F022907D026
:104B7000189A01CA189200229446032908D008E026
:104B80001898C01DC108C90005C91891944603E0D2
:104B900080B2042900D1C0B200210291210729D599
:104BA0001199702906D0009A1021019B4A401A439E
:104BB00005D00EE040216A461173012108E06146EC
:104BC000014306D030216A461173119951730221B5
:104BD0000291009A0821019B4A401A430AD161467A
:104BE000014301D1610705D530216A4611730121C6
:104BF0007F1E02911199582904D035A10E910DA95B
:104C00000D910DE037A1F9E76146019B009AFBF792
:104C10009FFE0E9B8C469B5C0D9A521E0D9213704C
:104C200061460143F0D10D9805A9081A2030019082
:104C3000600703D501200004844300E001270198A8
:104C4000874201DD381A00E00020019900904118E8
:104C5000029809180498401A0490E00306D42146EB
:104C60001A9B199A049800F0B3F94519002706E039
:104C700003A81A9AC05D199990476D1C7F1C029871
:104C80008742F5DBE0030CD521461A9B199A04985C
:104C900000F09EF9451904E01A9A302019999047BE
:104CA0006D1C0099481E00900029F5DC08E00D9865
:104CB0000D990078491C0D911A9A199990476D1C0D
:104CC0000199481E01900029F1DC63E109280100E7
:104CD0003031323334353637383961626364656672
:104CE0000000000030313233343536373839414234
:104CF000434445460000000000F05AF94519761C6F
:104D00003078002800D0E2E528461BB0F0BD6007EF
:104D100000D406271898C01DC108C90048680A6851
:104D20000831C30FDB071891190001D09CA108E0DE
:104D3000210501D59BA104E0E10701D09AA100E083
:104D40009AA1430011985B08109165280CD006DCED
:104D5000452809D046281DD0472841D141E0662882
:104D600018D067283CD13CE00021112F01DB112035
:104D700000E0781C0191009008A911A8FFF7E0FC61
:104D8000139905910021119A15927F1C1298019791
:104D9000009150E00120C00703900120019008A974
:104DA000009711A8FFF7CCFC139A149905920022E2
:104DB000119B009212981593059A0192002901D037
:104DC000104602E0791C40180190381A01D501986C
:104DD00004E04042401E0090781C0190C01B0290ED
:104DE00043E0012F00DA01270021112F01DD1120FE
:104DF00000E038460191009008A911A8FFF7A0FC37
:104E000013990591119A002112981592009101971A
:104E100021070CD40599B94201DB019900E0019109
:104E2000012904DD159A491E515C302906D0B8428B
:104E300001DA011D05DA0121029115E00199491EEF
:104E4000EDE7002805DC0099411800910199091A45
:104E500003E0019A411C914200DD01910099401A42
:104E6000401C02900120C0070390200706D402993D
:104E70000198814202DB0020C04302900020694675
:104E8000C87707AF012103980337C907884224D0A8
:104E9000022011902B201290039800280CDA404237
:104EA00003902D20129007E00A210398FBF758F990
:104EB00030317F1E039039701199481E11900029DE
:104EC000F2DC03980028EFD1791E12980870307830
:104ED000202108404530BF1E387006A8C01BC01DE9
:104EE000039010980078002800D001200199411803
:104EF0000298C0170918039809180498401A401E10
:104F00000490E00306D421461A9B199A049800F0F5
:104F10005FF8451910980078002803D01A9A19995B
:104F200090476D1CE00324D521461A9B199A0498DA
:104F300000F04EF845191CE00098002807DB0099A6
:104F40000598884203DD1598405C199901E019998C
:104F500030201A9A904700986D1C401C00900298CF
:104F6000401E0290002804D11A9A2E2019999047C9
:104F70006D1C0199481E01900029DDDC05E03878A0
:104F80001A9A7F1C199990476D1C0399481E03902B
:104F90000029F4DC21461A9B199A0498ACE600001B
:104FA0002D0000002B000000200000000000000089
:104FB000F8B5044600251E461746880404D405E0CB
:104FC00039462020B0476D1C641EF9D52846F8BD2F
:104FD000FFB50446002581B01E46C80301D5302721
:104FE00000E02027880404D505E038460399B0473F
:104FF0006D1C641EF9D5284605B0F0BD0A68531C27
:105000000B6010707047000070B51120FCF71EFA9D
:105010000B4E044631461E31F28F0D4609A0FFF7B4
:1050200027FB542044430948F38F20182A4608A13F
:10503000401CFFF72DFB1120FEF790FF70BD000014
:105040005C66002025732C25640D0A0000010020F9
:1050500041542B51494F50454E3D22544350222C30
:10506000222573222C25640010B502F0E1FC1948BA
:10507000FBF74FF9002806D01648FBF74AF901461E
:10508000144801F0B9FF1448FBF743F9002806D093
:105090001148FBF73EF901460F4802F09DFA0F4810
:1050A000FBF737F9002806D00C48FBF732F9014628
:1050B0000A4801F0E9FC0A4C6189002908D009A0DE
:1050C000FFF7D6FA61890B4802F0F4FC00206081FA
:1050D00010BD0000205F0020205D00202063002024
:1050E000E4000020677072732073697A652025647C
:1050F0000D0A000020610020F8B5304E30483178AC
:1051000001270024002907D02E4D012910D00229A3
:1051100039D0032943D047E005460470FEF7DCFB95
:105120002948FCF714FD2F7001F09EFB37703BE01F
:1051300007702821288AFBF713F8002904D11420CE
:10514000FEF70CFFFFF760FF288A2049401C80B261
:1051500028820A78002A08D0C82806D90C7028218D
:10516000FAF7FEFF01461AA008E07D2109018842F6
:1051700007D92821FAF7F4FF01461FA0FFF778FAB4
:105180003470AC8110E0A889401C80B2A881C82886
:105190000AD9AC81377021A0FFF76AFA04E0022136
:1051A00001702C8203F020F9FEF77AFDFFF75CFF17
:1051B00000F082F83220FCF7CAFCF8BD6113002031
:1051C000AA000020E4000020B80B00000500002029
:1051D0004669727374207265636F6E6E65637420C6
:1051E00025642074696D65732C2072657374617217
:1051F00074204D450D0A00007265636F6E6E656325
:10520000742025642074696D65732C207265737435
:10521000617274204D450D0A000000004C6F6769F3
:105220006E672054696D656F75742C207265747299
:105230007920636F6E6E6563740D0A0030B583B0BC
:105240000446FFF761FA05460020009002460190EF
:1052500021466846FBF787FC2846FFF76BFA019961
:10526000009803B030BD0000F8B5104CE07900287C
:105270001BD0E078012600257602002809D10127FD
:10528000E7703A4631460A48FCF755FD0948058063
:105290002774607B002808D06573002231460448DB
:1052A000FCF749FD2574E571E570F8BDA20000200A
:1052B000000400480800002010B50B480022417887
:1052C00000290BD08178002908D04270074801F0EE
:1052D0002DFE002801D103F007FA10BD0178002946
:1052E000FBD00270F7E70000E40000200166002018
:1052F00030B58BB0044600F037FD01460020002990
:1053000003D00F49C97A002918D06946087003A94B
:105310000C4800F0DBFB04A80330FBF718F86D46DF
:10532000691CFBF71EF8691D0698FBF71AF809219E
:105330006A46204600F05AF90BB030BD0120E4E780
:105340005C6600202065002010B503212420FEF7B4
:10535000F5FD01212620FEF7F1FD01212820FEF7B1
:10536000EDFD01F089F802212A20FEF7E7FD022178
:105370002B20FEF7E3FD02212C20FEF7DFFD0221AA
:105380002D20FEF7DBFD02212E20FEF7D7FD0221A6
:105390002F20FEF7D3FD02212920FEF7CFFD0121AA
:1053A0003320FEF7CBFD01213420FEF7C7FD02219B
:1053B0003520FEF7C3FD10BD10B504462720FCF7CD
:1053C00045F85421484306492246401805A1401C8F
:1053D000FFF75EF901212720FEF7B0FD10BD0000A8
:1053E0000001002041542B5142544E414D453D2572
:1053F00073000000FEB50F4605468678FCF76AF894
:10540000EC197F1FB9B2681C203C00F0EBFC05468C
:10541000617F207F0902401884B2A54209D0022191
:10542000304603F0CFF92246294637A0FFF720F98E
:10543000FEBD31463DA0FFF71BF93F483300FFF7A3
:1054400052F90E180815242A2E343018181818404E
:105450004618C07AC1070CD14007800F09D001F06F
:1054600045F8002805D0012106200BE0C07A00286D
:1054700004D00121304603F0A5F9FEBD00F040F94B
:105480000121052004F09EFB0BE02B480021403059
:1054900041560720F6E7304603F0BEF8FEBD01F0A6
:1054A000B3FA304603F0A2F9FEBD01F01FF8002860
:1054B00003D00121062004F085FB3046FFF718FFDA
:1054C000FEBD304603F092F903F00AF9FEBD00205C
:1054D00001901A48007E00F0E9FA6C4618492071E4
:1054E0000A78627120398B7A1649A3710978E171C3
:1054F0000091014614A0FFF7BBF801AA0421304631
:1055000000F038F8FEBD0000627420636865636BCC
:1055100073756D206572726F722C637263313D25F5
:10552000782C637263323D25780D0A004254206363
:105530006D643D25640D0A005C660020E86500206E
:1055400080650020F40000207369673D25642C7697
:105550006965773D25642C757365643D25642C630E
:105560006F6E6E6563745F74696D65733D25640D60
:105570000A000000F7B515460F46202001F058F844
:105580000446FBF7A7FF0646002C2ED0202120461C
:10559000FAF787FE3A202070022060700098A07011
:1055A000E770002D06D0002F04D03A462946201D72
:1055B000FAF75EFEE5192E71300A6871300CA87199
:1055C000300EE871F91D601C00F00CFC2872000A16
:1055D00068720D20A8720A20E87239460C31204604
:1055E00000F08AF8204600F03DFBFEBDF7B51446FA
:1055F0000F46202001F01CF80546FBF76BFF06461E
:10560000002D2DD020212846FAF74BFE3A20287095
:10561000022068700098A870002C06D0002F04D0DB
:105620003A462146E81CFAF723FEEC19E670300AE8
:105630002071300C6071300EA071B91D681C00F033
:10564000D1FBE071000A20720D2060720A20A07266
:1056500039460B31284600F04FF8284600F002FB8F
:10566000FEBD000070B592B00E460546402101A86F
:10567000FAF717FE3120FBF7E9FE44B2F1B201AAB6
:10568000284600F0EDFD542044430C4840212418E6
:10569000601CFAF706FE01A80090094809A10278EB
:1056A0004368601CFEF7F4FF01A90FA0FEF7E0FFBE
:1056B0003120FEF753FC12B070BD00000001002045
:1056C000F800002041542B51425447415453494E55
:1056D000443D2241303031222C25642C25642C316C
:1056E0002C2225732200000042542053454E443D95
:1056F00025730D0A0000000010B5FFF7B3FF10BDC1
:1057000010B508490120087007480222C17A1143E8
:10571000C17201464822032004F0AAFA01F07AF986
:1057200010BD0000A70000205C66002070B58AB0A4
:10573000017A08AEF170427A7270837AB3700124F4
:105740003470C57A6E463573047B7473407BB073D6
:1057500000260796069602900095019412A0FEF787
:1057600087FF002203A91748FDF71EFA002208A9A7
:105770001448FDF7B5F9002203A91248FDF718F9FE
:10578000002208A90F48FDF7F1F86E46307BB27B86
:10579000717B6B4607C308AEB3787278F17803A0CB
:1057A000FEF766FF0AB070BD63616C692025642D49
:1057B00025642D25642025643A25643A25640D0A64
:1057C00000000000C018002004480549807A0968DC
:1057D000884201D201207047002070475C6600209B
:1057E000D000002003480068642801D901207047D8
:1057F00000207047D000002010B500222021024870
:10580000FCF799FA10BD00000004004810B505E04F
:10581000835C8C5CA34201D0002010BD1346521E55
:1058200092B2002BF4D1012010BD00007CB5002500
:105830000E4604462846891E04E0225C5219401C8C
:1058400095B280B28842F8DB294653A0FEF710FFDC
:10585000A0192038827FE9B2914203D1C07F290A82
:10586000814201D000207CBD4FA0FEF701FF2078CF
:105870001D284FD100F026FC00284BD0607801286D
:1058800002D0022828D084E0E078012806D002283F
:105890000BD0032810D004287BD114E020790028F5
:1058A00001D045A015E04AA013E02079002801D0DE
:1058B0004CA00EE050A00CE02079002801D052A0AE
:1058C00007E055A005E02079002801D056A000E0AF
:1058D0005BA0FEF7CDFE5CE05F48E17801742179C2
:1058E00062798918A27908329140E27910329140A8
:1058F00009064161217A0176627A4276A37A83763B
:10590000E57AC576247B047754A000950194FEF7D0
:10591000AFFE3EE0207816283BD12179E0780902DD
:10592000401881B260785C4A102823D008DC08282F
:105930000DD009280FD00A2814D00F2829D115E03E
:1059400017281BD047281DD0482822D11EE01170EF
:10595000080A50701DE09170080AD0704FA0FEF741
:1059600087FE16E01171080A507112E09171080A61
:10597000D0710EE01172080A50720AE09172080AA2
:10598000D07206E01173080A507302E09173080A9E
:10599000D07301207CBD0000636865636B73756D17
:1059A0003D25780D0A000000636865636B73756DB3
:1059B000206F6B0D0A0000005370656564206368FA
:1059C000616E676520537563636573730D0A00002C
:1059D0005370656564206368616E67652046616920
:1059E0006C0D0A005169616E7961205375636365BE
:1059F00073730D0A000000005169616E79612046E1
:105A000061696C0D0A0000005A68756C6920537555
:105A100063636573730D0A005A68756C692046618B
:105A2000696C0D0A0000000047757A68616E672096
:105A3000786975667520537563636573730D0A0025
:105A400047757A68616E672078697566752046616A
:105A5000696C0D0A00000000701500205265637625
:105A60002055706C6F6164207469616F73753D259A
:105A7000642C71793D25642C7A68756C693D2564C8
:105A80002C6469616E7975616E3D25642C78697549
:105A900066753D25640D0A00A4660020766F6C745F
:105AA0006167653D25640D0A0000000010B563289C
:105AB00008D01E2808D8642148431E21FAF750FB5D
:105AC000C0B210BD002010BD642010BDF8B50C465A
:105AD000054600886421FAF743FB2170A8786070BE
